:020000040800F2
:10000000A007002091010008A50500089D05000833
:10001000A105000829040008EF11000800000000F5
:100020000000000000000000000000009D0D00081E
:100030007D04000800000000290B0008CD0E000818
:10004000AB010008AB010008AB010008AB010008E0
:10005000AB010008AB010008AB010008AB010008D0
:10006000AB010008AB010008AB010008AB010008C0
:10007000AB010008AB010008AB010008AB010008B0
:10008000AB010008AB010008AB010008AB010008A0
:10009000AB010008AB010008AB010008AB01000890
:1000A000AB010008AB010008AB010008AB01000880
:1000B000AB010008AB010008AB010008AB01000870
:1000C000AB010008AB010008AB010008AB01000860
:1000D000AB010008310F0008AB010008AB010008BC
:1000E000AB010008AB010008AB01000800F002F80A
:1000F00000F03FF80AA090E8000C82448344AAF183
:100100000107DA4501D100F034F8AFF2090EBAE880
:100110000F0013F0010F18BFFB1A43F0010318473B
:100120002814000048140000103A24BF78C878C191
:10013000FAD8520724BF30C830C144BF04680C60ED
:10014000704700000023002400250026103A28BF35
:1001500078C1FBD8520728BF30C148BF0B60704739
:10016000782900F07780002070471FB51FBD10B5BB
:1001700010BD00F027F91146FFF7F7FF01F000F975
:1001800000F045F903B4FFF7F2FF03BC01F07AF881
:100190000948804709480047FEE7FEE7FEE7FEE71B
:1001A000FEE7FEE7FEE7FEE7FEE7FEE70448054957
:1001B000054A064B70470000D10E0008ED0000080C
:1001C000A0010020A0070020A0030020A003002021
:1001D000704700000FB4044910B503AA029800F05C
:1001E000C3F810BC5DF814FB2C0000202DE9F04191
:1001F0000E460446002020622046E168884730B35E
:10020000252805D0D4E901219047206A401CF2E757
:10021000E168204600278847050018D0A5F1410075
:10022000192802D820354FF4006732462946204667
:100230002760FFF795FF40B1012804D0F61D26F096
:1002400007060836D8E7361DD6E72846DAE7206ADB
:10025000BDE8F08170B504460D4621461068AFF345
:1002600000802188090502D50F4A7A4402E00E4A2F
:100270007A440E32002104F1240305E000F00F0659
:100280000009965D5E54491C0028F7D120780023B0
:10029000000704D5702D02D009B102231132204687
:1002A000BDE8704000F006B8B21200007047704719
:1002B000704770472DE9F0470D469946924604462F
:1002C00000F124080168880604D5E06921F01001D6
:1002D000216000E00120A84201DD471B00E000276B
:1002E000A1697A1902EB0900081AA0612078C006FA
:1002F00002D42046AFF30080002608E0D4E90121B3
:100300001AF806009047206A401C761C20624E4571
:10031000F4DB2078C0060AD52046AFF3008006E063
:10032000D4E9012130209047206A401C2062381E09
:10033000A7F10107F4DC07E0D4E9012118F8050072
:100340009047206A401C2062281EA5F10105F3DCBD
:100350002046AFF300802078000602D50220BDE8D9
:10036000F0870120FBE70000074B70B50D467B448A
:1003700000F011F80446284600F020F810B14FF0C4
:10038000FF3070BD204670BDF30F000001694A1CAC
:1003900002610878704700B58FB0CDE901310021C6
:1003A000059105497944CDE9031011466846FFF7E8
:1003B0001DFF0FB000BD0000E5FFFFFF007B00F058
:1003C00080007047754600F02BF8AE460500694680
:1003D000534620F00700854618B020B5FFF7E6FE2B
:1003E000BDE820404FF000064FF000074FF0000836
:1003F0004FF0000B21F00701AC46ACE8C009ACE8B7
:10040000C009ACE8C009ACE8C0098D46704710B51A
:100410000446AFF300802046BDE81040FFF7B2BEAF
:10042000004870473C01002000BFFEE708B50121ED
:10043000042000F0B1FB0120ADF8000010208DF881
:10044000030003208DF802006946044800F017F805
:100450000121024800F0A0F808BD0000000801409A
:1004600070B505460C460026284600F04DFC0646B1
:1004700026EA0401284600F0BDFE70BD70472DE954
:10048000F04102460025002600200023002400271A
:1004900091F803C00CF00F0591F803C00CF0100C9C
:1004A000BCF1000F03D091F802C04CEA050591F8A9
:1004B00000C0BCF1000F31D0146800202BE04FF0D9
:1004C000010C0CFA00F3B1F800C00CEA03069E42DE
:1004D00020D183004FF00F0C0CFA03F7BC4305FA50
:1004E00003FC4CEA040491F803C0BCF1280F06D1C8
:1004F0004FF0010C0CFA00FCC2F814C00AE091F8AD
:1005000003C0BCF1480F05D14FF0010C0CFA00FC00
:10051000C2F810C0401C0828D1D31460B1F800C044
:10052000BCF1FF0F34DD546800202EE000F1080C10
:100530004FF0010808FA0CF3B1F800C00CEA03060A
:100540009E4221D183004FF00F0C0CFA03F7BC43FD
:1005500005FA03FC4CEA040491F803C0BCF1280F2F
:1005600005D100F1080C08FA0CF8C2F8148091F8D3
:1005700003C0BCF1480F07D100F1080C4FF001088F
:1005800008FA0CF8C2F81080401C0828CED354603A
:10059000BDE8F081416170470161704700BFFEE72F
:1005A00000BFFEE7704710B54FF4A06000F03AF8C6
:1005B00010BD000070B5002100230F22C47804B3E1
:1005C000154C246804F4E064C4F5E064210AC1F128
:1005D0000403CA40447804FA03F1847814402143A8
:1005E00009010E4C0678A155047804F01F0501247A
:1005F000AC4005786D11AD0005F1E025C5F800416E
:1006000009E0047804F01F050124AC40044D06788D
:10061000761145F8264070BD0CED00E000E400E0E6
:1006200080E100E002490143024A11607047000086
:100630000000FA050CED00E070B5002419E004F1AB
:10064000B001C8B2002100F0EDF80021084600F02A
:10065000E9F80021102000F0E5F8002505E001216F
:10066000002000F0DFF8681CC5B2802DF7DB601CAD
:10067000C4B2082CE3DB70BD08B50121042000F0F2
:100680008BFAB020ADF8000010208DF80300032095
:100690008DF8020069465548FFF7F1FEB021534836
:1006A000FFF77AFF0121082000F076FA40F20310EC
:1006B000ADF8000010208DF8030003208DF8020033
:1006C00069464B48FFF7DBFE40F203114848FFF74D
:1006D00063FF01214648FFF75FFF642000F0F6FD4D
:1006E00001214348FFF756FFC82000F0EFFD01212C
:1006F0003F48FFF751FF0021AE2000F093F80021A2
:10070000084600F08FF80021102000F08BF800213F
:10071000402000F087F80021812000F083F80021BC
:10072000CF2000F07FF80021A12000F07BF800210D
:10073000C82000F077F80021A62000F073F800210F
:10074000A82000F06FF800213F2000F06BF8002196
:10075000D32000F067F80021084600F063F800217C
:10076000D52000F05FF80021802000F05BF8002128
:10077000D92000F057F80021F12000F053F80021B3
:10078000DA2000F04FF80021122000F04BF8002191
:10079000DB2000F047F80021402000F043F8002162
:1007A000202000F03FF80021022000F03BF800215B
:1007B0008D2000F037F80021142000F033F80021DC
:1007C000A42000F02FF80021A62000F02BF8002133
:1007D000AF2000F027F80021AF2000F023F8FFF74A
:1007E0002BFF0021084600F005F808BD0008014075
:1007F000000C014070B504460D4605F1B001C8B2C9
:10080000002100F00FF8102141EA1410002100F03F
:1008100009F804F00F0141F00100002100F002F896
:1008200070BD000070B504460E4626B1022118487E
:10083000FFF7B2FE03E002211548FFF7ABFE1021DF
:100840001448FFF7A7FE002517E020211148FFF705
:10085000A1FE04F0800020B180210E48FFF79CFE2D
:1008600003E080210B48FFF795FE20210948FFF7A0
:1008700093FE6006040E681CC5B2082DE5DB10214E
:100880000448FFF789FE02210148FFF785FE70BD8D
:10089000000C01400008014010B503211420FFF7AF
:1008A000DFFD10BD10B5142000F02EFA044604F050
:1008B000030018B90321142000F071FA10BDF0B53F
:1008C00087B00546002708210846FFF7C9FD00212B
:1008D0000D2000F08FFC80210E20FFF7C1FD93203A
:1008E0008DF8040020208DF8050006A801AB022237
:1008F00001A900900C2000F01AF8064686B90024E1
:1009000007E001A8005D285501A8005D4740601C74
:10091000C4B2042CF5DB01A8005DB84200D0FE266D
:1009200080210E2000F03BFA304607B0F0BD2DE9E3
:10093000FE4F0646884691469A46DDF830B0FE20C6
:1009400002900020019000900C2E06D00E2E09D1AE
:10095000122001901020009005E0772001903020B7
:10096000009000E000BF00BF019840F0800102202D
:1009700000F040FC80210420FFF772FD00210120DF
:1009800000F038FC80210A2000F009FA002505E07B
:1009900018F80510092000F02DFC6D1C4D45F7D30B
:1009A0003146012000F026FC0C2E03D180210D20C1
:1009B00000F0F5F94FF4167500BF042000F0A4F91B
:1009C00004466D1E35B104F0010018B900982040AE
:1009D0000028F2D080210D20FFF742FD95B30620BC
:1009E00000F092F900F01B0068BB00200290019813
:1009F000204000F0010008B1FF2002900C2E24D10D
:100A00000A2000F081F904460C2000F07DF900F086
:100A100007072FB1601E07EBC000CBF8000002E013
:100A2000E000CBF8000004B90124122C00DD1224F0
:100A3000002505E0092000F067F90AF805006D1CA3
:100A4000A542F7D301E0FE20029080210C2000F0A7
:100A5000A6F90021012000F0CDFB0298BDE8FE8F31
:100A600070B588B005460C4608210846FFF7F8FC2B
:100A700007210D2000F0BEFB0321142000F08FF9A8
:100A80008DF8085007A802AB012202A900900C20A3
:100A9000FFF74DFF06464EB90798102806D19DF87E
:100AA000080020709DF80900607000E0FE263046C6
:100AB00008B070BD10B50120194908600A2000F087
:100AC0002BFC00201749C1F8A4010A2000F024FCE7
:100AD0000120134908600A2000F01EFC0F210120AC
:100AE00000F088FB0A2000F017FC3D21112000F0E7
:100AF00081FB1E212D2000F07DFB00212C2000F029
:100B000079FB8D212A2000F075FB3E212B2000F07F
:100B100071FB4021152000F06DFB002010BD00008E
:100B2000A4812142008021427047000008B50121C4
:100B3000082000F031F84FF43870ADF800001020B4
:100B40008DF8030003208DF8020069460948FFF77D
:100B500096FC4FF438710748FFF71EFD4FF4807084
:100B6000ADF8000048208DF8030069460148FFF702
:100B700086FC08BD000C014029B1064A12690243F7
:100B8000044B1A6104E0034A12698243014B1A6163
:100B9000704700000010024029B1064A92690243E2
:100BA000044B9A6104E0034A92698243014B9A61C3
:100BB000704700000010024029B1064AD268024383
:100BC000044BDA6004E0034AD2688243014BDA60E6
:100BD000704700000010024030B5002100220024C0
:100BE00000232D4D6D6805F00C0121B1042905D0BD
:100BF000082923D105E0294D056022E0274D056035
:100C00001FE0254D6D6805F47012234D6D6805F4E5
:100C10008034022505EB92421CB9214D55430560F5
:100C20000BE01D4D6D6805F400351DB11C4D55439D
:100C3000056002E0194D5543056002E0174D05605F
:100C400000BF00BF144D6D6805F0F0010909154D96
:100C50006B5C0568DD4045600F4D6D6805F4E06133
:100C6000090A104D6B5C4568DD4085600A4D6D6872
:100C700005F46051C90A0B4D6B5C4568DD40C560E9
:100C8000054D6D6805F44041890B074D6B5CC568E7
:100C9000B5FBF3F5056130BD0010024000127A008B
:100CA00000093D00320000204200002008B501216B
:100CB0000C20FFF771FF4FF44050ADF800001020FA
:100CC0008DF8030003208DF8020069460C48FFF7F9
:100CD000D6FB4FF440510A48FFF75EFC0220ADF806
:100CE000000010208DF8030003208DF802006946F3
:100CF0000448FFF7C4FB02210248FFF74DFC08BD82
:100D0000000C0140000801402DE9F0410646002595
:100D10000020204908602049C1F894017E2000EAA3
:100D2000460040F08007082412E0C7F3C0101949BC
:100D3000091D086001201849C1F898017806070EBE
:100D40000020144908600A2000F0E6FA601EC4B2D0
:100D5000002CEADC082410E001200E490860680637
:100D6000050E0D48D0F820012843C5B200200860C8
:100D70000A2000F0D1FA601EC4B2002CECDC012085
:100D80000449091F08600449C1F898012846BDE8D4
:100D9000F08100009881214200802142704770B5A7
:100DA00005460C4600262846FFF7AEFF064646EAF3
:100DB0000401284600F01EFA70BD10B500F002F8DC
:100DC00010BD00000CB50020019000903348006871
:100DD00040F480303149086000BF3048006800F4BA
:100DE000003000900198401C0190009818B90198BB
:100DF000B0F5A06FF1D12948006800F4003010B1BF
:100E00000120009001E0002000900098012843D1CB
:100E10002348006840F01000214908600846006837
:100E200020F0030008600846006840F002000860F7
:100E30001A484068194948600846406848600846B2
:100E4000406840F4806048600846406820F47C10A8
:100E500048600846406840F4E8104860084600686A
:100E600040F08070086000BF0C48006800F000701F
:100E70000028F9D00948406820F00300074948607D
:100E80000846406840F00200486000BF03484068E0
:100E900000F00C000828F9D10CBD00000010024041
:100EA00000200240042808D14FF0E021096941F0F8
:100EB00004014FF0E022116107E04FF0E0210969E1
:100EC00021F004014FF0E0221161704770470000EB
:100ED00010B51348006840F0010011490860084649
:100EE0004068104908400E494860084600680E49AD
:100EF00008400B4908600846006820F4802008601C
:100F00000846406820F4FE0048604FF41F008860E7
:100F1000FFF753FF4FF000600449086010BD000068
:100F2000001002400000FFF8FFFFF6FE08ED00E0B1
:100F300010B540F225511D4800F098F810B31B4839
:100F400000F050F9C4B21A48008800F40040C8B953
:100F50001748008800F4804060B10A2C03D00020BC
:100F60001349088020E01248008840F400401049EE
:100F7000088019E00D2C06D10D48008840F480400F
:100F80000B49088010E00A480088C0F30D000949A9
:100F90000C5407480088401C054908800846008812
:100FA000C72801DD0020088010BD00000038014086
:100FB000300000207200002021B1828942F40052EA
:100FC000828104E082894DF6FF731A408281704766
:100FD00010B504462048844209D101218803FFF757
:100FE000EBFD00214FF48040FFF7E6FD32E01B48A7
:100FF000844209D101214804FFF7BEFD00214FF4CE
:101000000030FFF7B9FD25E01548844209D10121E0
:101010008804FFF7B1FD00214FF48020FFF7ACFDFD
:1010200018E01048844209D10121C804FFF7A4FD4B
:1010300000214FF40020FFF79FFD0BE00A48844297
:1010400008D101210805FFF797FD00214FF480101A
:10105000FFF792FD10BD0000003801400044004041
:1010600000480040004C00400050004070B502466F
:10107000002400230025002040F66A16B14200D16A
:1010800000BFC1F3421501F01F03012606FA03F366
:10109000012D02D19689334006E0022D02D1168A35
:1010A000334001E0968A33400C12012606FA04F41C
:1010B0001688344013B10CB1012000E0002070BD4F
:1010C000F0B50346002400260025002040F66A17EC
:1010D000B94200D100BF1846C1F3421401F01F0607
:1010E000012707FA06F5012C01D10C3004E0022C8F
:1010F00001D1103000E014301AB107682F430760A7
:1011000002E00768AF430760F0BD00002DE9F0473B
:1011100086B005460E460024A24600BFA146002721
:10112000B08900B100BF2F462C8A4CF6FF700440F6
:10113000F08804432C82AC894EF6F3100440B0884A
:1011400031890843718908430443AC81AC8A4FF666
:10115000FF400440B0890443AC8201A8FFF73CFD86
:101160001F48874202D1DDF810A001E0DDF80CA095
:10117000A88900F4004040B10AEBCA0000EB0A1055
:1011800031684900B0FBF1F807E00AEBCA0000EB58
:101190000A1031688900B0FBF1F86420B8FBF0F068
:1011A00004012009642101FB1089A88900F4004092
:1011B00040B1322000EBC900B0FBF1F000F00700B5
:1011C000044308E0322000EB09106421B0FBF1F089
:1011D00000F00F0004432C8106B0BDE8F08700004A
:1011E0000038014001468888C0F30800704700BFFE
:1011F000FEE700002DE9F04106460D4600201F499C
:1012000008601F49C1F894017E2000EA46070824BF
:1012100012E0C7F3C0101949091D086001201849E0
:10122000C1F898017806070E0020144908600A20CA
:1012300000F072F8601EC4B2002CEADC082412E050
:10124000C5F3C0100D49091D086001200C49C1F803
:1012500098016806050E0020084908600A2000F081
:101260005BF8601EC4B2002CEADC01200349091FB0
:1012700008600349C1F89801BDE8F08198812142D6
:101280000080214200BF704710B56FF00400FFF7E7
:1012900009FE0A4800680A49B0FBF1F009490870E4
:1012A0000846007800EB4001C1EBC0104FF6FF711B
:1012B00001EAC0000449088010BD000000000020C1
:1012C00000127A0014000020160000200146114A86
:1012D00012884A434FF0E0235A6100229A611A466D
:1012E000126942F001021A6100BF4FF0E02210695A
:1012F00000F001021AB100F48032002AF5D04FF05C
:10130000E022126922F001024FF0E0231A6100226C
:101310009A617047160000200146114A12784A432C
:101320004FF0E0235A6100229A611A46126942F096
:1013300001021A6100BF4FF0E022106900F00102C3
:101340001AB100F48032002AF5D04FF0E022126981
:1013500022F001024FF0E0231A6100229A617047E7
:101360001400002000BF054A128802F04002002A43
:10137000F9D0C2B2014B1B1D1A80704700380140E2
:10138000FFF711F9FFF7A4FDFFF77EFF4FF4E130FF
:1013900000F072F8FFF78AFCFFF748F8FFF7C6FB8A
:1013A000FFF76AF9FFF748F96420FFF78FFFFFF7AF
:1013B00081FBFFF771FA0A20FFF788FFFFF772FA47
:1013C0000A20FFF783FF20A0FEF704FF3BE04FF465
:1013D0007A70FFF77BFF1F495220FFF741FB05465C
:1013E00035B1FFF767FBFFF757FAFFF75BFA2AE023
:1013F00019A0FEF7EFFE00240AE01648005D194927
:1014000008700846017818A0FEF7E4FE601CC4B21C
:10141000022CF2DB0F48FFF752FA054605B112E045
:1014200012A0FEF7D7FE00240AE00A48005D0D492D
:101430000870084601780CA0FEF7CCFE601CC4B210
:10144000042CF2DB00BFC2E75374617274200D0AF2
:101450000000000048000020BFA8B5C4C0E0D0CD07
:101460003A0000001800002025580000BFA8D0F264
:10147000C1D0BAC5A3BA000010B586B00446012198
:1014800044F20400FFF788FB2348FFF7A1FD4FF467
:101490000070ADF8140003208DF8160018208DF8A8
:1014A000170005A91D48FEF7EAFF4FF48060ADF86C
:1014B000140004208DF8170005A91848FEF7DFFF77
:1014C00025208DF8000003208DF801008DF8020022
:1014D00001208DF803006846FFF76CF801940020A6
:1014E000ADF80800ADF80A00ADF80C00ADF810003A
:1014F0000C20ADF80E0001A90748FFF707FE0122F6
:1015000040F225510448FFF7DBFD01210248FFF7B7
:1015100053FD06B010BD0000003801400008014036
:101520003031323334353637383941424344454619
:101530004030580030313233343536373839616213
:10154000636465664030780068150008000000207C
:101550004800000028010008B015000848000020DD
:10156000580700004401000800A24A0400000000DF
:101570000000000001020304060708090000000043
:101580005A00000000000000000000000000000001
:101590000000000000000000000000000000010248
:1015A00003040102030406070809020406080000F8
:04000005080000ED02
:00000001FF
