:020000040800F2
:1000000078110020D9010008010C000873080008CD
:10001000C50B000839050008D31C000800000000CB
:10002000000000000000000000000000ED170008C4
:100030008D05000800000000E11200081D190008ED
:10004000F3010008F3010008F3010008F3010008C0
:10005000F3010008F3010008F3010008F3010008B0
:10006000F3010008F3010008F3010008F3010008A0
:10007000F3010008F3010008F3010008F301000890
:10008000F3010008F3010008F3010008F301000880
:10009000F3010008F3010008F3010008F301000870
:1000A000F3010008F3010008F3010008F301000860
:1000B000F3010008F3010008F3010008F301000850
:1000C000F3010008F3010008F3010008F301000840
:1000D000F3010008151A0008F3010008F3010008F5
:1000E000F3010008F3010008F301000800F002F832
:1000F00000F063F80AA090E8000C82448344AAF15F
:100100000107DA4501D100F058F8AFF2090EBAE85C
:100110000F0013F0010F18BFFB1A43F0010318473B
:10012000183000003830000010F8013B0A4413F08A
:10013000030408BF10F8014B1D1108BF10F8015B44
:10014000641E05D010F8016B641E01F8016BF9D133
:10015000002D15D010F8014B03F00C030C2BA1EB74
:1001600004040ABF10F8013BA4EB8314A4EB03249E
:1001700005F1010314F8016B5B1E01F8016BF9D561
:10018000914238BF10F8013BD1D3704700230024BF
:1001900000250026103A28BF78C1FBD8520728BF97
:1001A00030C148BF0B607047782900F08B80002079
:1001B00070471FB51FBD10B510BD00F08BF911467B
:1001C000FFF7F7FF01F0A4FE00F0A9F903B4FFF771
:1001D000F2FF03BC01F01EFE0948804709480047B2
:1001E000FEE7FEE7FEE7FEE7FEE7FEE7FEE7FEE7E7
:1001F000FEE7FEE704480549054A064B7047000044
:1002000021190008ED000008780B0020781100206B
:10021000780D0020780D0020704700000FB40449CD
:1002200010B503AA029800F03FF910BC5DF814FB6A
:10023000FC0900200FB41CB5074B06AA7B44694695
:100240000090059800F017F90020694600F026F9A3
:100250001CBC5DF814FB00005D0200002DE9F041BC
:100260000E460446002020622046E168884730B3ED
:10027000252805D0D4E901219047206A401CF2E7E7
:10028000E168204600278847050018D0A5F1410005
:10029000192802D820354FF40067324629462046F7
:1002A0002760FFF781FF40B1012804D0F61D26F03A
:1002B00007060836D8E7361DD6E72846DAE7206A6B
:1002C000BDE8F08170B504460D4621461068AFF3D5
:1002D00000802188090502D50F4A7A4402E00E4ABF
:1002E0007A440E32002104F1240305E000F00F06E9
:1002F0000009965D5E54491C0028F7D12078002340
:10030000000704D5702D02D009B102231132204616
:10031000BDE8704000F051B8322E000040EA010301
:1003200070B59B072ED14FF00136042A2AD308C896
:1003300010C99D1B9D43121F15EAC61517D0D8B2D0
:10034000E1B2401A50EA056110D198B2A1B2401A48
:1003500050EA05410AD123F07F4024F07F41401A42
:1003600050EA052102D1180EA0EB146070BDA34223
:10037000DBD018BA21BA884201D9012070BD4FF0F4
:10038000FF3070BD0AB9002070BD10F8013B11F8B4
:10039000014B63B1A3420AD1521E08D010F8013BB1
:1003A00011F8014B1BB1A34201D1521EEDD1181B14
:1003B00070BD70477047704770472DE9F0470D4694
:1003C00099469246044600F124080168880604D53F
:1003D000E06921F01001216000E00120A84201DD68
:1003E000471B00E00027A1697A1902EB0900081AEF
:1003F000A0612078C00602D42046AFF3008000261A
:1004000008E0D4E901211AF806009047206A401C50
:10041000761C20624E45F4DB2078C0060AD52046C3
:10042000AFF3008006E0D4E9012130209047206A34
:10043000401C2062381EA7F10107F4DC07E0D4E974
:10044000012118F805009047206A401C2062281EF0
:10045000A5F10105F3DC2046AFF30080207800060B
:1004600002D50220BDE8F0870120FBE701694A1CA4
:1004700002610878704700B58FB0CDE901310021E5
:10048000059105497944CDE9031011466846FFF707
:10049000E5FE0FB000BD0000E5FFFFFF0A6802F8AF
:1004A000010B0A6070470000074B70B50D467B4496
:1004B000FFF7E1FF0446284600F008F810B14FF0BE
:1004C000FF3070BD204670BD431A0000007B00F075
:1004D00080007047754600F02BF8AE46050069466F
:1004E000534620F00700854618B020B5FFF782FE7E
:1004F000BDE820404FF000064FF000074FF0000825
:100500004FF0000B21F00701AC46ACE8C009ACE8A5
:10051000C009ACE8C009ACE8C0098D46704710B509
:100520000446AFF300802046BDE81040FFF74EBE02
:1005300000487047140B002000BFFEE708B50121FA
:10054000042000F005FF0120ADF8000010208DF818
:10055000030003208DF802006946044800F03BF8D0
:100560000121024800F0C4F808BD00000008014065
:1005700070B505460C460026284601F0EDF8064603
:1005800026EA0401284601F0FDFB70BD704710B556
:100590000021012001F0A0FB0021022001F09CFBC2
:1005A0000021032001F098FB0021042001F094FBBE
:1005B00010BD10B50121084601F08EFB012102207B
:1005C00001F08AFB0121032001F086FB01210420B8
:1005D00001F082FB10BD2DE9F04102460025002606
:1005E000002000230024002791F803C00CF00F0521
:1005F00091F803C00CF0100CBCF1000F03D091F87F
:1006000002C04CEA050591F800C0BCF1000F31D0E2
:10061000146800202BE04FF0010C0CFA00F3B1F845
:1006200000C00CEA03069E4220D183004FF00F0C5D
:100630000CFA03F7BC4305FA03FC4CEA040491F8F6
:1006400003C0BCF1280F06D14FF0010C0CFA00FCDE
:10065000C2F814C00AE091F803C0BCF1480F05D1FC
:100660004FF0010C0CFA00FCC2F810C0401C082826
:10067000D1D31460B1F800C0BCF1FF0F34DD546871
:1006800000202EE000F1080C4FF0010808FA0CF3EE
:10069000B1F800C00CEA03069E4221D183004FF05E
:1006A0000F0C0CFA03F7BC4305FA03FC4CEA0404F4
:1006B00091F803C0BCF1280F05D100F1080C08FA2D
:1006C0000CF8C2F8148091F803C0BCF1480F07D1B0
:1006D00000F1080C4FF0010808FA0CF8C2F810807D
:1006E000401C0828CED35460BDE8F08141617047BA
:1006F0000161704708B50121082000F029FE4FF480
:100700004040ADF8000010208DF8030003208DF864
:10071000020069460648FFF75EFF012005490860B0
:100720000549C1F8BC0100F078F800F06DF808BD8B
:10073000000C0140B88121420080214270B506467C
:100740000C46154600F054F9802000F01DF900F029
:100750009BF9304600F018F900F096F900F06EF9B8
:100760000A2001F07BFB00F043F9812000F00CF936
:1007700000F08AF90AE0002000F0CEF82070641C36
:1007800015B900F079F801E000F09EF8281EA5F1F7
:100790000101CDB2EFD100F051F970BD2DE9FF5F3D
:1007A000022203A90020FFF7C9FF9DF80D109DF854
:1007B0000C2041EA022001F0A0FE00220E4BCDE900
:1007C000000101F015FD804600220C4B01F0ACFE4B
:1007D000064600220A4B01F0A5FF04460022094B01
:1007E00001F0A2FE824601F05BFE80B20290029808
:1007F00004B0BDE8F09F00000000F04000A064409D
:10080000000044400000594010B5002444F48054D6
:100810002146022000F00CF810BD10B54FF4004442
:100820002146022000F004F8142001F017FB10BD4F
:100830002DE9F04105460C46E0B20612E7B200F0A1
:10084000D7F8802000F0A0F800F01EF9284600F04C
:100850009BF800F019F9304600F096F800F014F912
:10086000384600F091F800F00FF900F0E7F8BDE825
:10087000F08100BFFEE7000010B500200F490860BE
:100880000F48006820F070400D4908600846006875
:1008900040F04050086000200A49C1F8BC01022025
:1008A00001F002FB012005490860022001F0FCFA7A
:1008B00000200449C1F8B80110BD0000B8812142F0
:1008C000040C01400080214210B500200F4908604F
:1008D0000F48006820F070400D4908600846006825
:1008E00040F04050086001200A49C1F8BC010220D4
:1008F00001F0DAFA012005490860022001F0D4FA7B
:1009000000200449C1F8B80110BD0000B88121429F
:10091000040C01400080214270B5054600241748B0
:10092000006820F07040154908600846006840F0F3
:1009300000400860002616E00020114908600220EF
:1009400001F0B2FA01200F49C1F8B8016006040EA7
:100950000B487C38006808B1601CC4B2012001F06B
:10096000A3FA701CC6B2082EE6DB15B9FFF7ACFF80
:1009700001E0FFF781FF204670BD0000040C01403C
:10098000B88121420080214270B5044615480068B4
:1009900020F07040134908600846006840F040505D
:1009A0000860002010490860002517E0E0090E49A2
:1009B000091D08606006040E022001F075FA01208E
:1009C0000A49C1F8B801022001F06EFA0020064978
:1009D0000860022001F068FA681CC5B2082DE5DB4A
:1009E00070BD0000040C0140B8812142008021420A
:1009F00010B50F48006820F070400D4908600846A7
:100A0000006840F04050086001200A4908600A4927
:100A1000C1F8B801042001F047FA00200549086038
:100A2000042001F041FA00200349C1F8B80110BDCB
:100A3000040C0140BC8121420080214210B50F48C6
:100A4000006820F070400D4908600846006840F0DA
:100A50004050086000200A4908600A49C1F8BC01FA
:100A6000042001F021FA0120054908600549C1F878
:100A7000BC01042001F018FA10BD0000040C014074
:100A8000B88121420080214210B50024144800683A
:100A900020F07040124908600846006840F00040AD
:100AA000086001200F49086001F0FEF901200E499D
:100AB000C1F8B80101F0F8F907E0601CC4B2FA2CE3
:100AC00003DDFFF7BBFF012010BD0648803800683A
:100AD0000028F2D10349091F086000BFF4E70000B5
:100AE000040C0140BC81214200802142012804D035
:100AF000022806D003280DD108E00121064A116022
:100B000008E00121044A121F116003E00121034A99
:100B1000116000BF00BF7047B481214284012142AF
:100B2000012804D0022806D003280DD108E00021B6
:100B3000064A116008E00021044A121F116003E018
:100B40000021034A116000BF00BF7047B4812142F9
:100B50008401214208B50121182000F0F9FB4FF46F
:100B60004060ADF8000010208DF8030003208DF8E0
:100B7000020069461148FFF72EFD4FF40050ADF812
:100B8000000010208DF8030069460D48FFF723FD93
:100B90000021092001F0A0F80521012001F09CF8B6
:100BA00005210B2001F098F801210C2001F094F8A8
:100BB00000210F2001F090F808BD0000000C01405A
:100BC0000010014000BFFEE708B50121042000F03D
:100BD000BFFB4FF4CA50ADF8000010208DF80300A1
:100BE00003208DF8020069460448FFF7F4FC4FF437
:100BF000CA510248FFF77CFD08BD00000008014013
:100C0000704710B54FF4A06000F03AF810BD000036
:100C100070B5002100230F22C47804B3154C24685A
:100C200004F4E064C4F5E064210AC1F10403CA409D
:100C3000447804FA03F184781440214309010E4CEE
:100C40000678A155047804F01F050124AC4005780E
:100C50006D11AD0005F1E025C5F8004109E004780B
:100C600004F01F050124AC40044D0678761145F8C8
:100C7000264070BD0CED00E000E400E080E100E003
:100C800002490143024A1160704700000000FA0562
:100C90000CED00E070B5002419E004F1B001C8B219
:100CA000002100F09BF90021084600F097F900218F
:100CB000102000F093F9002505E00121002000F04C
:100CC0008DF9681CC5B2802DF7DB601CC4B2082CFE
:100CD000E3DB70BD10B5FFF7DDFF1E22022100200F
:100CE00000F0F4F81F220221102000F0EFF80AA211
:100CF0000221202000F056F91A220021084600F0B7
:100D0000E5F81B220021122000F0E0F804A20021E7
:100D1000242000F047F910BD49443A2000000000AB
:100D20003A20000008B50121042000F011FBB0209A
:100D3000ADF8000010208DF8030003208DF80200AC
:100D400069465448FFF747FCB0215248FFF7D0FCF2
:100D50000121082000F0FCFA0320ADF8000010206B
:100D60008DF8030003208DF8020069464A48FFF71A
:100D700032FC03214848FFF7BBFC01214648FFF73E
:100D8000B7FC642001F06AF801214348FFF7AEFC8C
:100D9000C82001F063F801213F48FFF7A9FC0021BA
:100DA000AE2000F01BF90021084600F017F90021E1
:100DB000102000F013F90021402000F00FF900216D
:100DC000812000F00BF90021CF2000F007F900216D
:100DD000A12000F003F90021C82000F0FFF8002155
:100DE000A62000F0FBF80021A82000F0F7F8002171
:100DF0003F2000F0F3F80021D32000F0EFF80021AD
:100E0000084600F0EBF80021D52000F0E7F80021BB
:100E1000802000F0E3F80021D92000F0DFF8002165
:100E2000F12000F0DBF80021DA2000F0D7F80021F3
:100E3000122000F0D3F80021DB2000F0CFF80021D1
:100E4000402000F0CBF80021202000F0C7F800215E
:100E5000022000F0C3F800218D2000F0BFF800212F
:100E6000142000F0BBF80021A42000F0B7F8002106
:100E7000A62000F0B3F80021AF2000F0AFF8002169
:100E8000AF2000F0ABF8FFF705FF0021084600F0A7
:100E900005F808BD00080140000C014070B504468B
:100EA0000D4605F1B001C8B2002100F097F81021FD
:100EB00041EA1410002100F091F804F00F0141F014
:100EC0000100002100F08AF870BD00002DE9F0411A
:100ED00080460E461546002731464046FFF7DEFFA6
:100EE00000240AE0124A02EB8511085D012100F09E
:100EF00075F8781CC7B2601CC4B2102CF2DB701CF1
:100F0000C1B24046FFF7CAFF00240CE06900491C4B
:100F1000074A02EB4111085D012100F05FF8781CDF
:100F2000C7B2601CC4B2102CF0DBBDE8F081000039
:100F3000940100202DE9F04107460E469046002519
:100F40000024A8F12000C5B27F2F02DD0027B01CCD
:100F5000C6B231463846FFF7A1FF002408E004EB93
:100F600005110F4A505C012100F038F8601CC4B232
:100F7000082CF4DB701CC1B23846FFF78FFF002449
:100F800009E004EB05110831054A505C012100F02D
:100F900025F8601CC4B2082CF3DBBDE8F08100002A
:100FA000202B00082DE9F04104460F461546002687
:100FB0000EE0AA5D39462046FFF7BCFF04F10800A9
:100FC000C4B2782C02DD0024B81CC7B2701CC6B2B3
:100FD000A85D0028EDD1BDE8F081000070B50446A1
:100FE0000E4626B102211848FFF782FB03E00221DA
:100FF0001548FFF77BFB10211448FFF777FB00250E
:1010000017E020211148FFF771FB04F0800020B1A8
:1010100080210E48FFF76CFB03E080210B48FFF7AF
:1010200065FB20210948FFF763FB6006040E681C7E
:10103000C5B2082DE5DB10210448FFF759FB02215A
:101040000148FFF755FB70BD000C0140000801404E
:1010500010B503211420FFF78BFA10BD10B5142032
:1010600000F07AFB044604F0030018B903211420B1
:1010700000F0BDFB10BDF0B587B005460027082184
:101080000846FFF775FA00210D2000F07BFE802155
:101090000E20FFF76DFA93208DF8040020208DF8C4
:1010A000050006A801AB022201A900900C2000F067
:1010B0001AF8064686B9002407E001A8005D285505
:1010C00001A8005D4740601CC4B2042CF5DB01A8F8
:1010D000005DB84200D0FE2680210E2000F087FB84
:1010E000304607B0F0BD2DE9FE4F064688469146D2
:1010F0009A46DDF830B0FE2002900020019000906A
:101100000C2E06D00E2E09D1122001901020009036
:1011100005E0772001903020009000E000BF00BF84
:10112000019840F08001022000F02CFE8021042074
:10113000FFF71EFA0021012000F024FE80210A2082
:1011400000F055FB002505E018F80510092000F017
:1011500019FE6D1C4D45F7D33146012000F012FEFB
:101160000C2E03D180210D2000F041FB4FF41675A9
:1011700000BF042000F0F0FA04466D1E35B104F003
:10118000010018B9009820400028F2D080210D20DD
:10119000FFF7EEF995B3062000F0DEFA00F01B0031
:1011A00068BB002002900198204000F0010008B1C7
:1011B000FF2002900C2E24D10A2000F0CDFA044624
:1011C0000C2000F0C9FA00F007072FB1601E07EBF2
:1011D000C000CBF8000002E0E000CBF8000004B94A
:1011E0000124122C00DD1224002505E0092000F066
:1011F000B3FA0AF805006D1CA542F7D301E0FE2002
:10120000029080210C2000F0F2FA0021012000F071
:10121000B9FD0298BDE8FE8F70B588B005460C4652
:1012200008210846FFF7A4F907210D2000F0AAFDC8
:101230000321142000F0DBFA8DF8085007A802AB58
:10124000012202A900900C20FFF74DFF06464EB97F
:101250000798102806D19DF8080020709DF8090015
:10126000607000E0FE26304608B070BD10B5012069
:10127000194908600A2000F017FE00201749C1F83C
:10128000A4010A2000F010FE0120134908600A2082
:1012900000F00AFE0F21012000F074FD0A2000F08A
:1012A00003FE3D21112000F06DFD1E212D2000F0D8
:1012B00069FD00212C2000F065FD8D212A2000F021
:1012C00061FD3E212B2000F05DFD4021152000F046
:1012D00059FD002010BD0000A48121420080214260
:1012E0007047000008B50121082000F031F84FF4E4
:1012F0003870ADF8000010208DF8030003208DF841
:10130000020069460948FFF766F94FF4387107484B
:10131000FFF7EEF94FF48070ADF8000048208DF82B
:10132000030069460148FFF756F908BD000C01406B
:1013300029B1064A12690243044B1A6104E0034AC8
:1013400012698243014B1A6170470000001002408D
:1013500029B1064A92690243044B9A6104E0034AA8
:1013600092698243014B9A6170470000001002406D
:1013700029B1064AD2680243044BDA6004E0034A0A
:10138000D2688243014BDA607047000000100240CF
:1013900030B500210022002400232D4D6D6805F09A
:1013A0000C0121B1042905D0082923D105E0294DDC
:1013B000056022E0274D05601FE0254D6D6805F4AE
:1013C0007012234D6D6805F48034022505EB9242BE
:1013D0001CB9214D554305600BE01D4D6D6805F4AA
:1013E00000351DB11C4D5543056002E0194D5543B4
:1013F000056002E0174D056000BF00BF144D6D6829
:1014000005F0F0010909154D6B5C0568DD4045608C
:101410000F4D6D6805F4E061090A104D6B5C45687D
:10142000DD4085600A4D6D6805F46051C90A0B4DB9
:101430006B5C4568DD40C560054D6D6805F4404155
:10144000890B074D6B5CC568B5FBF3F5056130BDD5
:101450000010024000127A0000093D00020A00203C
:10146000120A002010B50124FFF734FC714A022152
:101470003C20FFF797FD08226F496E48FEF74EFFAC
:10148000C4B27CB9002211463620FFF71FFD0122AD
:1014900000214820FFF71AFD022200215A20FFF701
:1014A00015FD10BD082265496248FEF737FFC4B23A
:1014B0007CB9032200213620FFF708FD0422002119
:1014C0004820FFF703FD052200215A20FFF7FEFC0C
:1014D000E7E708225A495748FEF720FFC4B27CB913
:1014E000062200213620FFF7F1FC072200214820C8
:1014F000FFF7ECFC082200215A20FFF7E7FCD0E7B9
:1015000008224D494B48FEF709FFC4B27CB90922B5
:1015100000213620FFF7DAFC0A2200214820FFF7DD
:10152000D5FC0B2200215A20FFF7D0FCB9E7082296
:1015300044494048FEF7F2FEC4B27CB90C220021B7
:101540003620FFF7C3FC0D2200214820FFF7BEFC28
:101550000E2200215A20FFF7B9FCA2E708223A49DF
:101560003448FEF7DBFEC4B27CB90F2200213620DE
:10157000FFF7ACFC102200214820FFF7A7FC112246
:1015800000215A20FFF7A2FC8BE708222F492948A7
:10159000FEF7C4FEC4B27CB9122200213620FFF748
:1015A00095FC132200214820FFF790FC1422002113
:1015B0005A20FFF78BFC74E7082225491D48FEF7E7
:1015C000ADFEC4B27CB9152200213620FFF77EFCA7
:1015D000162200214820FFF779FC172200215A200B
:1015E000FFF774FC5DE708221A491248FEF796FEE1
:1015F000C4B254B9182200213620FFF767FC192223
:1016000000214820FFF762FC4BE7082212A109489D
:10161000FEF784FEC4B22CB912A200213C20FFF7D1
:10162000C1FC3EE712A200213020FFF7BBFC00BF47
:1016300037E70000420A0020A2090020AA09002082
:10164000B2090020C2090020CA090020D2090020E6
:10165000DA090020E20900203139313839313938CE
:1016600000000000546578744E616D650000000054
:101670004E616D654572726F72210000FEB50546C0
:101680000127002600240020009001900290694666
:101690005220FFF7C1FD07463FB1FFF7E7FDFFF717
:1016A000D7FCFFF7DBFC0120FEBD6846FFF7E3FC3B
:1016B00007460FB10220F7E7002618E01DF80600E4
:1016C000001128552A5D28190BA1FEF7B3FD601CF7
:1016D000C4B21DF8060000F00F0028552A5D281935
:1016E00005A1FEF7A7FD601CC4B2701CC6B2042E93
:1016F000E4DB0020D8E700002558000008B50121F0
:101700000C20FFF725FE4FF44050ADF800001020EC
:101710008DF8030003208DF8020069460C48FEF79F
:101720005AFF4FF440510A48FEF7E2FF0220ADF89D
:10173000000010208DF8030003208DF80200694698
:101740000448FEF748FF02210248FEF7D1FF08BD1A
:10175000000C0140000801402DE9F041064600253B
:101760000020204908602049C1F894017E2000EA49
:10177000460040F08007082412E0C7F3C010194962
:10178000091D086001201849C1F898017806070E64
:101790000020144908600A2000F086FB601EC4B2D5
:1017A000002CEADC082410E001200E4908606806DD
:1017B000050E0D48D0F820012843C5B2002008606E
:1017C0000A2000F071FB601EC4B2002CECDC01208A
:1017D0000449091F08600449C1F898012846BDE87A
:1017E000F08100009881214200802142704770B54D
:1017F00005460C4600262846FFF7AEFF064646EA99
:101800000401284600F0BEFA70BD10B500F002F8E1
:1018100010BD00000CB50020019000903348006816
:1018200040F480303149086000BF3048006800F45F
:10183000003000900198401C0190009818B9019860
:10184000B0F5A06FF1D12948006800F4003010B164
:101850000120009001E0002000900098012843D171
:101860002348006840F010002149086008460068DD
:1018700020F0030008600846006840F0020008609D
:101880001A48406819494860084640684860084658
:10189000406840F4806048600846406820F47C104E
:1018A00048600846406840F4E81048600846006810
:1018B00040F08070086000BF0C48006800F00070C5
:1018C0000028F9D00948406820F003000749486023
:1018D0000846406840F00200486000BF0348406886
:1018E00000F00C000828F9D10CBD000000100240E7
:1018F00000200240042808D14FF0E021096941F09E
:1019000004014FF0E022116107E04FF0E021096986
:1019100021F004014FF0E022116170477047000090
:1019200010B51348006840F00100114908600846EE
:101930004068104908400E494860084600680E4952
:1019400008400B4908600846006820F480200860C1
:101950000846406820F4FE0048604FF41F0088608D
:10196000FFF753FF4FF000600449086010BD00000E
:10197000001002400000FFF8FFFFF6FE08ED00E057
:1019800038B50446002000904FF47A7094FBF0F0D4
:10199000C0B28DF80000642094FBF0F00A2190FBA7
:1019A000F1F201FB1200C0B28DF801000A2094FB95
:1019B000F0F090FBF1F201FB1200C0B28DF80200D2
:1019C0000A2094FBF0F100FB1140C0B28DF8030037
:1019D0009DF800000E4A115C012000F07DF99DF891
:1019E00001000B4A105C40F08001022000F074F905
:1019F0009DF80200064A115C032000F06DF99DF885
:101A00000300034A115C042000F066F938BD0000B1
:101A10009409002010B540F225511D4800F098F8B7
:101A200010B31B4800F050F9C4B21A48008800F403
:101A30000040C8B91748008800F4804060B10A2C03
:101A400003D000201349088020E01248008840F4A9
:101A500000401049088019E00D2C06D10D4800887F
:101A600040F480400B49088010E00A480088C0F329
:101A70000D0009490C5407480088401C054908809E
:101A800008460088C72801DD0020088010BD00003E
:101A900000380140000A00204C0A002021B1828950
:101AA00042F40052828104E082894DF6FF731A40AD
:101AB0008281704710B504462048844209D1012133
:101AC0008803FFF755FC00214FF48040FFF750FCDE
:101AD00032E01B48844209D101214804FFF728FC69
:101AE00000214FF40030FFF723FC25E01548844225
:101AF00009D101218804FFF71BFC00214FF480204D
:101B0000FFF716FC18E01048844209D10121C804EF
:101B1000FFF70EFC00214FF40020FFF709FC0BE05B
:101B20000A48844208D101210805FFF701FC002181
:101B30004FF48010FFF7FCFB10BD0000003801409F
:101B40000044004000480040004C0040005000406D
:101B500070B50246002400230025002040F66A16D6
:101B6000B14200D100BFC1F3421501F01F030126AD
:101B700006FA03F3012D02D19689334006E0022DC7
:101B800002D1168A334001E0968A33400C120126B6
:101B900006FA04F41688344013B10CB1012000E0B9
:101BA000002070BDF0B5034600240026002500206B
:101BB00040F66A17B94200D100BF1846C1F342147B
:101BC00001F01F06012707FA06F5012C01D10C30A0
:101BD00004E0022C01D1103000E014301AB1076883
:101BE0002F43076002E00768AF430760F0BD0000C5
:101BF0002DE9F04786B005460E460024A24600BFF8
:101C0000A1460027B08900B100BF2F462C8A4CF6B0
:101C1000FF700440F08804432C82AC894EF6F31028
:101C20000440B08831890843718908430443AC817A
:101C3000AC8A4FF6FF400440B0890443AC8201A84F
:101C4000FFF7A6FB1F48874202D1DDF810A001E094
:101C5000DDF80CA0A88900F4004040B10AEBCA00EE
:101C600000EB0A1031684900B0FBF1F807E00AEB1D
:101C7000CA0000EB0A1031688900B0FBF1F864205B
:101C8000B8FBF0F004012009642101FB1089A88948
:101C900000F4004040B1322000EBC900B0FBF1F08D
:101CA00000F00700044308E0322000EB0910642133
:101CB000B0FBF1F000F00F0004432C8106B0BDE84A
:101CC000F08700000038014001468888C0F3080012
:101CD000704700BFFEE700002DE9F04105460E46C3
:101CE0002F46B046012024490860082417E0002050
:101CF00022490860022000F0D7F8C7F3C01020493D
:101D0000C1F8AC01022000F0CFF87806070E0120E0
:101D10001A490860022000F0C7F8601EC4B2012C06
:101D2000E5DA082419E0002014490860022000F0D8
:101D3000BBF8C8F3C0101249C1F8AC01022000F092
:101D4000B3F84FEA48604FEA106801200B49086079
:101D5000022000F0A9F8601EC4B2012CE3DA0020D2
:101D600005490860022000F09FF801200449C1F8ED
:101D7000A801BDE8F0810000A8812142B4012242FF
:101D8000008021422DE9F04106460D4600201F4902
:101D900008601F49C1F894017E2000EA4607082424
:101DA00012E0C7F3C0101949091D08600120184945
:101DB000C1F898017806070E0020144908600A202F
:101DC00000F072F8601EC4B2002CEADC082412E0B5
:101DD000C5F3C0100D49091D086001200C49C1F868
:101DE00098016806050E0020084908600A2000F0E6
:101DF0005BF8601EC4B2002CEADC01200349091F15
:101E000008600349C1F89801BDE8F081988121423A
:101E10000080214200BF704710B56FF00400FFF74B
:101E200069FD0A4800680A49B0FBF1F009490870E9
:101E30000846007800EB4001C1EBC0104FF6FF717F
:101E400001EAC0000449088010BD00000000002025
:101E500000127A009E090020A00900200146114AC4
:101E600012884A434FF0E0235A6100229A611A46D1
:101E7000126942F001021A6100BF4FF0E0221069BE
:101E800000F001021AB100F48032002AF5D04FF0C0
:101E9000E022126922F001024FF0E0231A610022D1
:101EA0009A617047A00900200146114A12784A43FE
:101EB0004FF0E0235A6100229A611A46126942F0FB
:101EC00001021A6100BF4FF0E022106900F0010228
:101ED0001AB100F48032002AF5D04FF0E0221269E6
:101EE00022F001024FF0E0231A6100229A6170474C
:101EF0009E09002000BF054A128802F04002002A15
:101F0000F9D0C2B2014B1B1D1A8070470038014046
:101F1000FEF777FEFFF704FDFFF77EFF4FF4E13099
:101F200000F06AF8FFF7EAFBFEF708FBFFF7DAF9C3
:101F3000FEF7F8FEFEF70EFEFEF746FEFEF7DAFBB2
:101F4000FEF7C8FEFEF723FB24A0FEF767F943E087
:101F50004FF4FA70FFF782FF032095FBF0F100FBCE
:101F60001150401CC6B23046FEF7DAFD4FF4FA704D
:101F7000FFF774FF032095FBF0F100FB1150401CAC
:101F8000C6B23046FEF7B2FD681CC5B21648FFF770
:101F900075FB044604B11FE0FFF764FAFEF709FB86
:101FA0000020124908606420FFF758FF0120104903
:101FB000C1F88001FEF7F2FB0E4948804888FFF720
:101FC000DFFC40F2DC50FFF749FF40F2DC50FFF746
:101FD00045FFFEF7DCFA00BFBAE7000053746172F8
:101FE00074200D0A00000000420A002080012142F6
:101FF00000002142F609002010B586B004460121F8
:1020000044F20400FFF7A4F92348FFF753FD4FF40F
:102010000070ADF8140003208DF8160018208DF81C
:10202000170005A91D48FEF7D6FA4FF48060ADF8F9
:10203000140004208DF8170005A91848FEF7CBFA04
:1020400025208DF8000003208DF801008DF8020096
:1020500001208DF803006846FEF7DAFD01940020A8
:10206000ADF80800ADF80A00ADF80C00ADF81000AE
:102070000C20ADF80E0001A90748FFF7B9FD0122B9
:1020800040F225510448FFF78DFD01210248FFF77A
:1020900005FD06B010BD00000038014000080140F9
:1020A00010B591EA030F48BF83F0004300F142836B
:1020B000841A71EB030C05D2121943EB0C03001BBD
:1020C00061EB0C01DFF824E14FEA1154A4EB135C3F
:1020D0001EEA430F18BF9EEA445F73D023EA0E0343
:1020E000DCF1200E21EA045143F4801332D322FAAA
:1020F0000CFE10EB0E0023FA0CFE41EB0E01CCF1AE
:10210000200E03FA0EFE10EB0E0051F10001B1F5A6
:10211000801FCCF1200E32D201EB045112FA0EF2E4
:10212000BDE8104058BF7047401C38BF5FEA42020C
:1021300018BF7047002814BF20F0010041F10001D2
:102140004FEA410313F5001F38BF7047A1F1C041AA
:1021500000F0E2BA012A43EB0302ACF1200CDCF1FF
:102160001F0E32BF4FF0000E23FA0CF310EB0300EA
:1021700041EB0451B4EB115FD0D0A1EB045101F558
:10218000801149085FEA300001EB04510ED350F191
:10219000000038BF12FA0EFE08D1BDE81040C9E7B2
:1021A000401C38BF5FEA4202CAD1C3E7BDE8104015
:1021B0004FEA410313F5001F38BF7047A1F1C0413A
:1021C00000F0AABA9EEA445F08D011EA5E0FBDE8AB
:1021D000104004BF01F0004100207047BDE81040EE
:1021E00070B500F04BFA00BF64FBBE3E0000E0FF9C
:1021F0002DE9C04130B4DFF8A0C23CEA111418BF89
:102200003CEA131400F0EC8081EA03051CEA111487
:1022100044EAD57418BF1CEA131500F0C780A4EB7C
:1022200005044FF0004545EAC12145EAC32341EAD0
:10223000505143EA525304F17F74994204F500343B
:102240004FEAC0204FEAC22208BF904200F09C80B3
:102250004FEA13650FF24016765D4FEA134506FB11
:1022600005F7C7F1807706FB07F74FEAD737A7FBDB
:1022700003687642C8F58038A7FB06CE38BFA8F1C0
:10228000010807FB08E64FF0000EA6FB028CE6FBF8
:1022900003CEDCF1000CCEF1004E38BFAEF1010EE2
:1022A000A6FB0C584FF000074FF00005E6FB0E8729
:1022B000A1FB08C6A0FB07CE16EB0E0645F10005F4
:1022C000E1FB076515F1E04E7EBFA4F580345FEABF
:1022D00046066D4116F1800745F100054FEA1727C4
:1022E0004FEA066647EA0567A6F1DE46B6F1805F6B
:1022F0004FEA15251FD9384624F0010C05EBC471AF
:10230000BCF1FE6F01EB0C1102D8F0BCBDE80081FE
:1023100024425CBF01F5801E9EEAC47F02D4F0BC5B
:10232000BDE80081244238D4F0BCA1F1C041BDE831
:10233000004100F0F1B94FEAD22242EA43524FEA9B
:10234000D323A7FB02864FEAD02040EA415007FB87
:1023500003661EEA0E0F4FEAD12105FB026658BF45
:10236000A6EB0056B6EB00564FEA520E4EEAC37E7D
:1023700018EB0E0E56EB530EBDD518EB02085E415E
:102380007F1C55F10005B6E74FF480154FF00007AC
:102390004FF000064FF00008ADE7F0BC4FF0000032
:1023A00001F1C04101F00041BDE8008111EA0C1FBC
:1023B0000CEA131500D00CE013EA0C1F00F0258086
:1023C0004FF00000F0BC81EA030101F00041BDE8DC
:1023D0000081F0BCBDE8004181EA030100F09CB936
:1023E000F0BCBDE8004170B500F048F9097EFC3E44
:1023F00000F007B881EA03014FF0000001F000414E
:10240000704781EA030100F087B9F0BCBDE80041E4
:102410004FF0000021497047FFFDFBF9F7F5F4F29A
:10242000F0EEEDEBE9E8E6E4E3E1E0DEDDDBDAD86F
:10243000D7D5D4D3D1D0CFCDCCCBCAC8C7C6C5C4CD
:10244000C2C1C0BFBEBDBCBBBAB9B8B7B6B5B4B3E4
:10245000B2B1B0AFAEADACABAAA9A8A8A7A6A5A4CF
:10246000A3A3A2A1A09F9F9E9D9C9C9B9A99999893
:102470009797969595949393929191908F8F8E8E36
:102480008D8C8C8B8B8A89898888878786858584C3
:1024900084838382828181800000FF070000F87FAF
:1024A0004FEA1153A3F58063D3F11E03A8BFD3F104
:1024B000200C08DB4FF0004242EAC12252EA50529F
:1024C00032FA03F0704709420BD4102BC4BF00202E
:1024D000704703F5787CBCF1FF3F05D04FF0FF302B
:1024E00070474FF00000704770B500F0C7F800BFAC
:1024F0004992248000207047F0E710F0004248BF66
:102500004042B0FA80F310FA03F10AD0C3F11D0380
:1025100003F580634FEA415002EB035202EBD121F5
:1025200070474FF000007047DFF848C170B51CEAF3
:10253000111E1EBF1CEA13159EEA0C0F95EA0C0F24
:1025400000F06F8081EA030423EA4C134EEAD47E44
:1025500021EA4C1141F4801143F48013AE44A1FBF5
:10256000024CA0FB0365AEF17F7E361955EB0C05DE
:10257000A1FB034C4CF10003A0FB021C16EB0C0664
:10258000654153F10003094218BF46F0010613F4F8
:10259000007F0BD14FEA03314FEA0530340341EAA3
:1025A000155140EA16506FF003020AE04FEAC321CA
:1025B0004FEAC520F40241EA555140EA56506FF007
:1025C000020202EB2E4201EB025585EACE710AD0DF
:1025D0005FEA440C18BF24F0004450F1000041F1C0
:1025E000000120EAD47040F2FE7C624500D270BD4A
:1025F000A84214BF4FF080444FF04044002E08BF63
:102600000024BEF1806FA8BFA1F1C041BDE87040B9
:1026100080F282804FF0000001F1C04101F00041E2
:1026200070479EEA0C0F0CEA131518BF95EA0C0FC1
:1026300006D04FF0000081EA030E0EF0004170BD9D
:1026400000F01CF88900013E00F007B800F009B85E
:102650004FEA430C5FEA5C5C08D081EA030100F0BA
:102660005BB84FEA410C5FEA5C5CF6D14FF00000CA
:10267000014970470000FF070000F87F0EF1020ECD
:102680002EF0030E5EF8046B364205D4012A43EBAC
:10269000030515F5001F12D8012841EB010C1CF5AC
:1026A000001F0CD80ED14FEAD17C15F5001F0CEBA2
:1026B0004C0C0CF1020C08BF4CEBD37C04E04FF047
:1026C000080C01E04FEAD37C0CEB4C0526FA05F62A
:1026D00006F00706B6F1040C06D20EEB860CBDE838
:1026E00070404CF0010C6047DFE80CF0090B02026F
:1026F0004FF000414FF00000A1F5002170BD1946D8
:102700001046012851EB010418BFD4F5001484BF12
:10271000002001F0004170BD0808A0F500114FEA4B
:102720003101704710B591EA030F48BF83F00043B1
:102730003FF5BEAC841A71EB030C07D212198CF072
:10274000004C43EB0C03001B61EB0C01DFF8A4E130
:102750004FEA1154A4EB135C1EEA430F18BF9EEA24
:10276000445F00F0B08023EA6E03524221EA045134
:10277000C3EB6E0338BF5B1EDCF1200E25D322FABB
:102780000CFE10EB0E0043FA0CFE41EB0E01CCF1F7
:10279000200E03FA0EFE10EB0E0051F10001CCF1F9
:1027A000200E29D412FA0EF201EB0451BDE81040BC
:1027B00058BF7047401C1CBFB2F1004F7047002843
:1027C0000CBF491C20F00100704712EB020E43EBD6
:1027D000030218BF4FF0010E4EEA4202ACF1200C8A
:1027E000DCF11E0E54D943FA0CFE10EB0E0051F131
:1027F000FF31CCF11E0ED5D50EF1010E12FA0EFEF0
:10280000404141EB010101EB445C5FEA5C5C10D9A3
:1028100010EBDE7001EB045138BFBEF1004FBDE894
:10282000104018BF704700280CBF491C20F0010061
:10283000704730D24FEAD42C11F5001124F4006413
:102840001BD0B1FA81F20B3AA41AA41ED2F12003D4
:10285000914030FA03F31943904001EBCC71002C06
:1028600001EB0451BDE81040A8BF704701F1C04121
:102870004FF0000001F000417047B0FA80F310FA09
:1028800003F100D110BDE41A173C4805C90AE4E77A
:1028900001EB045110BD491001EB0451BDE810409B
:1028A0004FEA300002E04FF0000170474A0008BFD5
:1028B0000042F8D0B2F5001F28BF704701F0004178
:1028C0004FF0000070479EEA445F07D011EA5E0FA8
:1028D000BDE8104004BF002100207047BDE8104053
:1028E00070B5FFF7CBFE00BF40DFF63E83F000413E
:1028F000104670470000E0FF0000000000000000EC
:10290000002F000000000700070000147F147F1450
:1029100000242A7F2A1200626408132300364955D6
:10292000225000000503000000001C2241000000AE
:1029300041221C000014083E08140008083E080844
:10294000000000A06000000808080808000060609F
:102950000000002010080402003E5149453E0000DE
:10296000427F4000004261514946002141454B31C0
:10297000001814127F10002745454539003C4A498C
:1029800049300001710905030036494949360006FE
:102990004949291E00003636000000005636000066
:1029A00000081422410000141414141400004122E1
:1029B000140800020151090600324959513E007CB9
:1029C0001211127C007F49494936003E41414122A3
:1029D000007F4141221C007F49494941007F09098C
:1029E0000901003E4149497A007F0808087F00003C
:1029F000417F4100002040413F01007F08142241F7
:102A0000007F40404040007F020C027F007F0408AE
:102A1000107F003E4141413E007F09090906003E0A
:102A20004151215E007F0919294600464949493133
:102A30000001017F0101003F4040403F001F204056
:102A4000201F003F4038403F006314081463000714
:102A50000870080700615149454300007F4141006B
:102A600000552A552A55000041417F00000402010B
:102A700002040040404040400000010204000020E9
:102A800054545478007F4844443800384444442027
:102A900000384444487F00385454541800087E09D4
:102AA00001020018A4A4A47C007F0804047800009C
:102AB000447D4000004080847D00007F1028440059
:102AC0000000417F4000007C04180478007C08046A
:102AD000047800384444443800FC242424180018A6
:102AE000242418FC007C0804040800485454542092
:102AF00000043F444020003C4040207C001C20401B
:102B0000201C003C4030403C004428102844001C5D
:102B1000A0A0A07C004464544C4414141414141455
:102B200000000000000000000000000000000000A5
:102B3000000000F80000000000000033300000003A
:102B400000100C06100C0600000000000000000041
:102B500040C07840C0784000043F04043F040400B3
:102B6000007088FC08300000001820FF211E0000C3
:102B7000F008F000E018000000211C031E211E00D8
:102B800000F00888700000001E212324192721105E
:102B900010160E0000000000000000000000000001
:102BA000000000E0180402000000000718204000A8
:102BB00000020418E0000000004020180700000098
:102BC000404080F0804040000202010F01020200FC
:102BD000000000F0000000000101011F01010100E0
:102BE000000000000000000080B070000000000045
:102BF00000000000000000000001010101010101CE
:102C00000000000000000000003030000000000064
:102C10000000000080601804006018060100000039
:102C200000E010080810E000000F102020100F0036
:102C3000001010F8000000000020203F20200000BD
:102C40000070080808887000003028242221300015
:102C500000300888884830000018202020110E001D
:102C60000000C02010F8000000070424243F2400C6
:102C700000F80888880808000019212020110E009B
:102C800000E0108888180000000F112020110E00AD
:102C900000380808C83808000000003F00000000A5
:102CA0000070880808887000001C222121221C0066
:102CB00000E010080810E0000000312222110F008F
:102CC000000000C0C0000000000000303000000024
:102CD0000000008000000000000080600000000094
:102CE00000008040201008000001020408102000AD
:102CF00040404040404040000404040404040400F8
:102D0000000810204080000000201008040201008C
:102D1000007048080808F00000000030360100008C
:102D2000C030C828E810E0000718272423140B003F
:102D30000000C038E0000000203C230202273820B9
:102D400008F8888888700000203F202020110E009D
:102D5000C030080808083800071820202010080094
:102D600008F808080810E000203F202020100F007D
:102D700008F88888E8081000203F20202320180049
:102D800008F88888E8081000203F200003000000B1
:102D9000C03008080838000007182020221E020052
:102DA00008F808000008F808203F210101213F2011
:102DB000000808F8080800000020203F202000003C
:102DC00000000808F8080800C08080807F0000002C
:102DD00008F888C028180800203F20012638200065
:102DE00008F8080000000000203F202020203000CC
:102DF00008F8F800F8F80800203F003F003F2000E6
:102E000008F830C00008F808203F200007183F00ED
:102E1000E01008080810E0000F10202020100F001C
:102E200008F808080808F000203F2101010100000F
:102E3000E01008080810E0000F18242438504F0054
:102E400008F8888888887000203F2000030C302014
:102E500000708808080838000038202121221C0052
:102E6000180808F8080818000000203F200000009B
:102E700008F808000008F808001F202020201F0084
:102E80000878880000C83808000007380E010000E4
:102E9000F80800F80008F800033C0700073C0300AE
:102EA000081868808068180820302C03032C302014
:102EB0000838C800C83808000000203F2000000083
:102EC00010080808C83808002038262120201800DB
:102ED000000000FE020202000000007F40404000AF
:102EE000000C30C000000000000000010638C000E7
:102EF00000020202FE000000004040407F0000008F
:102F000000000402020204000000000000000000B3
:102F100000000000000000008080808080808080B1
:102F20000002020400000000000000000000000099
:102F300000008080808000000019242222223F208F
:102F400008F8008080000000003F112020110E00D2
:102F50000000008080800000000E11202020110061
:102F6000000000808088F800000E112020103F2013
:102F70000000808080800000001F22222222130097
:102F8000008080F0888888180020203F20200000E2
:102F90000000808080808000006B94949493600097
:102FA00008F8008080800000203F210000203F20A2
:102FB00000809898000000000020203F20200000A2
:102FC000000000809898000000C08080807F000092
:102FD00008F8000080808000203F24022D3020006F
:102FE000000808F8000000000020203F202000001A
:102FF0008080808080808000203F20003F20003F34
:103000008080008080800000203F210000203F2041
:103010000000808080800000001F202020201F00F2
:10302000808000808000000080FFA12020110E0021
:103030000000008080808000000E112020A0FF8012
:10304000808080008080800020203F2120000100BF
:103050000000808080808000003324242424190014
:10306000008080E0808000000000001F2020000021
:103070008080000000808000001F202020103F2062
:10308000808080000080808000010E3008060100F2
:1030900080800080008080800F300C030C300F0097
:1030A00000808000808080000020312E0E312000C2
:1030B000808080000080808080818E7018060100F2
:1030C00000808080808080000021302C2221300010
:1030D00000000000807C020200000000003F404031
:1030E00000000000FF00000000000000FF000000E2
:1030F0000002027C800000000040403F0000000011
:1031000000060101020204040000000000000000AB
:10311000303132333435363738394142434445460D
:103120004030580030313233343536373839616207
:103130006364656640307800583100080000002064
:10314000180A0000280100088C350008180A002021
:10315000600700008C010008500600A24A0400012C
:10316000F01801020304060708091010F01F10F000
:10317000403C1010FF1010100001100C40221508E8
:103180001621404242427F0402104021000C1020D0
:103190002010081467844424140C1D100A00000435
:1031A000040402FE4343400004114242FE20100882
:1031B00040301196909091040006129814135030EC
:1031C000403008040444847E06050AF1404006802D
:1031D0008080BEA20112BE0C011283313B00051299
:1031E0004484443C1D001012404042CC0040A09E4C
:1031F0008282829EA0202023000B113F90884043B2
:103200002C1028464160000D15809090484C5724A2
:103210002424544C44801006FF4949497F04061277
:10322000FF200410110000FE025A2A0AFA438ADA2B
:103230002A0A7A0220000D100F02AAA9A5545248AA
:103240002421110220000F100484C4B48C00004417
:103250004444FE4243425E10088044281827204818
:1032600001224F050510002008445454D454745FC3
:103270000607105444E015BF200401FE9201040427
:1032800011FE010280380920102CE7242400F040B0
:103290000A10F000000F110101017F211100070247
:1032A00002FF020207FF10068060F807089F22FF56
:1032B000A402100840154030040002023F0404122A
:1032C00012221E4022220112E20406133E60000D6B
:1032D00011FF4121110101030D112141F17F140959
:1032E00088898EF88C8B8880880C041022DA06007E
:1032F00003180720100C03040899000510FF08109C
:1033000008C1172020FC080911A4242420FF202232
:103310002C400C101040C07E40403F222220030C65
:10332000102040F84003000D10080888482818FFB6
:103330001828488808FF0810110082423100001048
:1033400060071060000011E22014074444C47F4469
:10335000C4BA0114C0000A158846300F40807F02AD
:103360000CC0218110040808FF040710F902DE35A3
:10337000C015C316FFC70C05112141211F40031DB5
:103380003F03080B1120F0282724E4342C20E08090
:103390000C0F11403F4080A1918D83819FA5A9A171
:1033A000B8210419BB2744FCC30F14230240041D99
:1033B0000104337F82010E10F27F0418071010D031
:1033C000FF9010C608041365C664C01A03402E039C
:1033D00047040E12FF3F04200800229A8A8AAFAAEF
:1033E00001000610AF8A8AAA1AC10C0E1150524A67
:1033F0002A25538A7C08142422400005380810909E
:1034000090FF909010870D12E1041F003F58052E89
:10341000BFC7030C041142827F2105080D11020C65
:10342000C00020A464A43F2464A4400C0F15020231
:103430007F00808944462B122A4680814003000980
:10344000112024A4643E62A322403D40032F8261E8
:1034500039031DC10305116236025A36FE6101119E
:103460001F424001527F080D1240053DDB053DE142
:10347000050111203F808042033A00FF0D12200514
:10348000040F13FC8484FC082622E23AA222222A9A
:10349000063F0C0B113F0010131212FF121212A163
:1034A000062C0400FE829D041DA3040E12826006F9
:1034B0001B8060B5121E3B1E1E060305127F2404EE
:1034C000020AEAFD11040F11EA0A600500104F829A
:1034D0004A2A1E0B4A8A7A02FA4B4A4AFA02C03D2D
:1034E00080062D05041E7F83030D111F041D81041A
:1034F000040C101F20504846414048504847601077
:103500000C504844474C5444F4484744070E114477
:10351000A103080C124F21110905FF050911294FBC
:10352000BF0DFF00080D7C00082C0B7E306D793339
:103530005B5F707F7B2C04600A3046323336363056
:1035400041300170083331323032443310112000E1
:103550002718373730343834463732344341323025
:1035600044373246363846303136394138334335C0
:103570004632323431435A00012DFA096DFE0900FA
:0C35800007000204060800000000000024
:04000005080000ED02
:00000001FF
